:100000000C9434000C9449000C9449000C94490061
:100010000C9449000C9449000C9449000C9449003C
:100020000C9449000C9449000C9449000C9449002C
:100030000C9449000C9449000C9449000C9449001C
:100040000C9449000C9449000C9449000C9449000C
:100050000C9449000C9449000C9449000C944900FC
:100060000C9449000C94490011241FBECFEFD8E036
:10007000DEBFCDBF11E0A0E0B1E0E2E9F2E002C0F6
:1000800005900D92AC32B107D9F70E940E010C9485
:1000900047010C9400001092B90087E48093B800E7
:1000A00084E08093BC00089584EA8093BC00809132
:1000B000BC008823E4F7089584E98093BC00089588
:1000C0008093BB0084E88093BC008091BC008823AF
:1000D000E4F70895CF93807FC82FC62B0E94540069
:1000E0008EE40E9460008C2F8C600E94600085E08E
:1000F0008A95F1F700008C2F8B7F88600E9460004A
:1001000087EC90E00197F1F700C000000E945C00CE
:10011000CF910895CF93C82F60E0807F0E946A003E
:1001200060E08C2F8295807F0E946A00CF910895B5
:10013000CF93C82F61E0807F0E946A0061E08C2F1E
:100140008295807F0E946A00CF91089581E00E948D
:100150008A008FE39FE10197F1F700C00000089546
:100160002FEF80E792E0215080409040E1F700C0FF
:1001700000000E944B0083E30E948A0082E30E94F9
:100180008A0088E20E948A008CE00E948A0086E051
:100190000E948A000E94A6000895CF93DF9300D0AA
:1001A000CDB7DEB7198290E49A83E1E0F0E0EC0F7E
:1001B000FD1FE80FF11D8081860F80680E948A0074
:1001C0000F900F90DF91CF910895CF93DF93EC01C3
:1001D00003C021960E94980088818111FACFDF9197
:1001E000CF91089580E480937C0087E880937A0023
:1001F0000895ECE7F0E09081907F8F70892B8083E9
:10020000EAE7F0E080818064808380917A0086FD57
:10021000FCCF8091780090917900089584B181603D
:1002200084B985B1816085B90E94F2000E94B00056
:1002300060E080E00E94CD0080E091E00E94E50057
:1002400080E00E94F9008F3E924060F085B18E7F81
:1002500085B960E081E00E94CD008EE091E00E94CF
:10026000E5000BC085B1816085B960E081E00E9446
:10027000CD008DE191E00E94E5008FEF99E628E145
:10028000815090402040E1F700C00000D9CFF894A1
:02029000FFCF9E
:1002920053797374656D20526561647921005374DA
:1002A200617475733A2044525920202000537461BE
:0C02B2007475733A20574554202020003A
:00000001FF
